:020000040800F2
:10000000B806002029020008310200083302000867
:10001000350200083702000839020008000000001D
:100020000000000000000000000000003B0200088B
:100030003D020008000000003F02000841020008E5
:10004000430200084302000843020008430200087C
:10005000430200084302000843020008430200086C
:10006000430200084302000843020008430200085C
:10007000430200084302000843020008430200084C
:10008000430200084302000843020008430200083C
:10009000430200084302000843020008430200082C
:1000A000430200084302000843020008430200081C
:1000B000430200084302000843020008430200080C
:1000C00043020008430200084302000843020008FC
:1000D00043020008430200084302000843020008EC
:1000E00043020008430200084302000843020008DC
:1000F00043020008430200084302000843020008CC
:1001000043020008430200084302000843020008BB
:1001100043020008430200084302000843020008AB
:10012000430200084302000843020008430200089B
:10013000430200084302000843020008430200088B
:10014000430200084302000843020008430200087B
:10015000430200084302000843020008430200086B
:10016000430200084302000843020008430200085B
:100170004302000843020008430200080000000098
:10018000430200084302000800F002F800F03CF8C7
:100190000AA090E8000C82448344AAF10107DA45E2
:1001A00001D100F031F8AFF2090EBAE80F0013F0F8
:1001B000010F18BFFB1A43F001031847C0070000E6
:1001C000E0070000103A24BF78C878C1FAD8520777
:1001D00024BF30C830C144BF04680C6070470000C1
:1001E0000023002400250026103A28BF78C1FBD840
:1001F000520728BF30C148BF0B6070471FB500F0E1
:10020000B4FB1FBD10B510BD00F0A8F81146FFF7F4
:10021000F5FF00F0A3FB00F0C6F803B4FFF7F2FF10
:1002200003BC00F0CDF800000948804709480047AA
:10023000FEE7FEE7FEE7FEE7FEE7FEE7FEE7FEE796
:10024000FEE7FEE704480549054A064B70470000F3
:10025000F107000889010008B8000020B806002056
:10026000B8020020B802002053EA020C00F06980B6
:100270002DE9F04B4FF00006002B1FBFB3FA83F5BA
:1002800003FA05F424FA05F65E4012BF1643B2FAEB
:1002900082F502FA05F4C5F120051EBF22FA05FC1D
:1002A00044EA0C04203556EA044C4FEA144418BFC3
:1002B000641C4FF000084FF00009904271EB030CF2
:1002C00039D3002919BFB1FA81F701FA07F6B0FA5C
:1002D00080F700FA07F6C7F120071EBF20FA07FCD7
:1002E00046EA0C062037B6FBF4FCA7EB0507103FE7
:1002F00007F01F0BCBF120060CFA0BFB2CFA06F6CD
:1003000044BFB3460026202FA4BF5E464FF0000B2B
:100310005BEA060C08BF4FF0010B19EB0B09ABFBB6
:10032000027C48EB0608C01B06FB02CC0BFB03CC8F
:1003300071EB0C01C1E70B46024641464846BDE859
:10034000F08B13B54FF000004FF00001AFF30080C9
:10035000BDE81C407047704770477047754600F015
:100360002BF8AE4605006946534620F00700854647
:1003700018B020B5FFF766FFBDE820404FF000063B
:100380004FF000074FF000084FF0000B21F007017D
:10039000AC46ACE8C009ACE8C009ACE8C009ACE8C0
:1003A000C0098D46704710B50446AFF30080204663
:1003B000BDE81040FFF731BF0048704754000020EF
:1003C00001491820ABBEFEE726000200704700007E
:1003D0002DE9F84FDFF8BCA10022012503264FF0DC
:1003E0000F090AF1040BAAF1040E00BF0B6805FA0D
:1003F00002F42340A34270D10F7907F00307012FC5
:1004000001D0022F16D187684FEA420806FA08FC8D
:1004100027EA0C07D1F80CC00CFA08FC4CEA070CD0
:10042000C0F808C04768A7430C79C4F3001494408F
:100430003C4344600C79E443A4070AD0C4684FEA03
:10044000420C06FA0CF7BC438F6807FA0CF72743F7
:10045000C7600C7904F00304022C12D1D40800EB1D
:10046000840CDCF820405707FF0E09FA07F824EA4D
:100470000804D1F8108008FA07F848EA0408CCF814
:10048000208004684FEA420C06FA0CF7BC430F794F
:1004900007F0030707FA0CF7274307604C6814F4CA
:1004A000403F70D03C4C276847F480472760246861
:1004B00022F0030704F480440094384C07EB040C4A
:1004C000DCF8084897074FEA177809FA08F7BC43A1
:1004D000334FB84202D1002724E054E0314FB842F4
:1004E00001D101271EE0304FB84201D1022719E0A7
:1004F0002E4FB84201D1032714E02D4FB84201D14D
:1005000004270FE02B4FB84201D105270AE02A4FFC
:10051000B84201D1062705E0284FB84201D107278C
:1005200000E0082707FA08F72743CCF80878DAF83C
:1005300000405746D1F804C09C435FEACC2C00D55C
:100540001C433C60DBF800405F46D1F804C09C438C
:100550005FEA8C2C00D51C433C60DEF800407746F7
:10056000D1F804C09C435FEA8C3C00D51C433C603E
:10057000084F083F3C68D1F804C09C435FEACC3C7C
:1005800000D51C433C60521C102AFFF42FAFBDE87D
:10059000F88F0000083C0140443802400030014020
:1005A000000002400004024000080240000C02402B
:1005B000001002400014024000180240001C0240DB
:1005C0000B4810B5016841F400710160016841F405
:1005D00080610160016841F480710160032000F0D6
:1005E00069F8002000F006F800F024F8002010BDA3
:1005F000003C024070B50D4D04464FF47A712878E6
:10060000B1FBF0F00A490968B1FBF0F000F084F8A2
:1006100048B9102C07D200222146501E00F02AF8BB
:1006200000206C6070BD012070BD00000000002043
:100630000C00002010B5032000F03CF80C480168C5
:1006400041F4E0210160002211466FF00B0000F040
:1006500011F8002211466FF00A0000F00BF800229A
:10066000BDE8104011466FF0090000F003B800002B
:1006700024ED00E0F0B40E4B1B680C46C3F30223DC
:10068000C3F10705042D00D90425191D072901D23E
:10069000002300E0DB1E012606FA05F1491E214079
:1006A00099409E40761E16403143F0BC00F046B99A
:1006B0000CED00E0064900F0070208684FF6FF0362
:1006C000184040EA0220034A1043086070470000C7
:1006D0000CED00E00000FA050448054900680968CF
:1006E000044AC1F38221515CC84070470C000020CD
:1006F0000838024074090008044805490068096880
:10070000044AC1F34231515CC84070470C000020DC
:10071000083802407409000810B5401EB0F1807F0F
:1007200001D3012010BD4FF0E02460610F2160175C
:1007300000F004F90020A06107202061002010BD16
:1007400070B5040004D094F83D00002510B106E017
:10075000012070BD84F83C50204600F023F824208E
:1007600084F83D002068C16821F40051C160204632
:1007700000F05EF82068016921F490410161206871
:10078000416921F02A0141612068C16841F40051AA
:10079000C1602564202084F83D0084F83E000020DC
:1007A00070BD0000104810B5026886B0002142F408
:1007B0000032026000680D4C00F400300590042007
:1007C0000090022001900120CDE902010720049051
:1007D00069462046FFF7FCFD082000906946204648
:1007E000FFF7F6FD06B010BD4038024000000240A1
:1007F0000248016841F470010160704788ED00E033
:100800000A4810B5084901604FF4E1314160002108
:100810008160C160016181610C214161FFF790FF3E
:10082000002800D0FEE710BD00440040100000206A
:1008300070B5044600680169E26821F44051114333
:1008400001612169A068E2690843616911430843B5
:100850002168CA6849F20C639A430243CA6020685F
:100860004169A26921F44071114341613149206815
:10087000884202D03049884202D1FFF73DFF01E0B3
:10088000FFF72AFFE2690023192164253226B2F519
:10089000004F626828D0A0FB0101930F9200FFF780
:1008A000E3FC0146B0FBF5F06FF01802504301EB9A
:1008B000800006EB0010B0FBF5F000F0F002B1FB99
:1008C000F5F002EB0012B1FBF5F06FF0180358439E
:1008D00001EB800006EB0010B0FBF5F000F00F001C
:1008E00021681044886070BDA0FB010192185B4133
:1008F000FFF7BAFC0146B0FBF5F00201B1FBF5F0E1
:100900006FF01803584301EB800006EBC000B0FB0A
:10091000F5F000F0F80002EB4002B1FBF5F05843AF
:1009200001EB800006EBC000B0FBF5F000F0070023
:10093000D6E7000000100140001401400907090E2D
:10094000002804DB00F1E02080F80014704700F07C
:100950000F0000F1E02080F8141D704710B5FFF77C
:100960002FFEFFF74DFF002010BD4FF04070E1EE6D
:10097000100A704700000000010203049C090008EF
:100980000000002010000000C4010008AC090008AD
:1009900010000020A8060000E0010008010000008F
:0C09A00010000000000000000024F40023
:040000050800018965
:00000001FF
