:020000040800F2
:10000000B806002029020008310200083302000867
:10001000350200083702000839020008000000001D
:100020000000000000000000000000003B0200088B
:100030003D020008000000003F02000847090008D8
:10004000430200084302000843020008430200087C
:10005000430200084302000843020008430200086C
:10006000430200084302000843020008430200085C
:10007000430200084302000843020008430200084C
:10008000430200084302000843020008430200083C
:10009000430200084302000843020008430200082C
:1000A000430200084302000843020008430200081C
:1000B000430200084302000843020008430200080C
:1000C00043020008430200084302000843020008FC
:1000D00043020008430200084302000843020008EC
:1000E00043020008430200084302000843020008DC
:1000F00043020008430200084302000843020008CC
:1001000043020008430200084302000843020008BB
:1001100043020008430200084302000843020008AB
:10012000430200084302000843020008430200089B
:10013000430200084302000843020008430200088B
:10014000430200084302000843020008430200087B
:10015000430200084302000843020008430200086B
:10016000430200084302000843020008430200085B
:100170004302000843020008430200080000000098
:10018000430200084302000800F002F800F03CF8C7
:100190000AA090E8000C82448344AAF10107DA45E2
:1001A00001D100F031F8AFF2090EBAE80F0013F0F8
:1001B000010F18BFFB1A43F001031847DC090000C8
:1001C000FC090000103A24BF78C878C1FAD8520759
:1001D00024BF30C830C144BF04680C6070470000C1
:1001E0000023002400250026103A28BF78C1FBD840
:1001F000520728BF30C148BF0B6070471FB500F0E1
:10020000B1FC1FBD10B510BD00F0C7F81146FFF7D7
:10021000F5FF00F091FC00F0E5F803B4FFF7F2FF02
:1002200003BC00F0EDF8000009488047094800478A
:10023000FEE7FEE7FEE7FEE7FEE7FEE7FEE7FEE796
:10024000FEE7FEE704480549054A064B70470000F3
:100250005509000889010008B8000020B8060020F0
:10026000B8020020B802002053EA020C00F06980B6
:100270002DE9F04B4FF00006002B1FBFB3FA83F5BA
:1002800003FA05F424FA05F65E4012BF1643B2FAEB
:1002900082F502FA05F4C5F120051EBF22FA05FC1D
:1002A00044EA0C04203556EA044C4FEA144418BFC3
:1002B000641C4FF000084FF00009904271EB030CF2
:1002C00039D3002919BFB1FA81F701FA07F6B0FA5C
:1002D00080F700FA07F6C7F120071EBF20FA07FCD7
:1002E00046EA0C062037B6FBF4FCA7EB0507103FE7
:1002F00007F01F0BCBF120060CFA0BFB2CFA06F6CD
:1003000044BFB3460026202FA4BF5E464FF0000B2B
:100310005BEA060C08BF4FF0010B19EB0B09ABFBB6
:10032000027C48EB0608C01B06FB02CC0BFB03CC8F
:1003300071EB0C01C1E70B46024641464846BDE859
:10034000F08B13B54FF000004FF00001AFF30080C9
:10035000BDE81C40704710B5431C02E010F8011BBB
:1003600071B18107FAD14FF0013202C88C1A8C4367
:1003700014EAC211F9D0C01A0A0603D0C01E10BD7B
:10038000C01A10BD0A0401D0801E10BD0902FCD0A5
:10039000401E10BD704770477047754600F02CF83E
:1003A000AE4605006946534620F00700854618B062
:1003B00020B5FFF747FFBDE820404FF000064FF0A3
:1003C00000074FF000084FF0000B21F00701AC468A
:1003D000ACE8C009ACE8C009ACE8C009ACE8C009A9
:1003E0008D46704710B50446AFF300802046BDE847
:1003F0001040FFF712BF000000487047580000206F
:1004000001491820ABBEFEE726000200704700003D
:100410002DE9F84FDFF8BCA10022012503264FF09B
:100420000F090AF1040BAAF1040E00BF0B6805FACC
:1004300002F42340A34270D10F7907F00307012F84
:1004400001D0022F16D187684FEA420806FA08FC4D
:1004500027EA0C07D1F80CC00CFA08FC4CEA070C90
:10046000C0F808C04768A7430C79C4F3001494404F
:100470003C4344600C79E443A4070AD0C4684FEAC3
:10048000420C06FA0CF7BC438F6807FA0CF72743B7
:10049000C7600C7904F00304022C12D1D40800EBDD
:1004A000840CDCF820405707FF0E09FA07F824EA0D
:1004B0000804D1F8108008FA07F848EA0408CCF8D4
:1004C000208004684FEA420C06FA0CF7BC430F790F
:1004D00007F0030707FA0CF7274307604C6814F48A
:1004E000403F70D03C4C276847F480472760246821
:1004F00022F0030704F480440094384C07EB040C0A
:10050000DCF8084897074FEA177809FA08F7BC4360
:10051000334FB84202D1002724E054E0314FB842B3
:1005200001D101271EE0304FB84201D1022719E066
:100530002E4FB84201D1032714E02D4FB84201D10C
:1005400004270FE02B4FB84201D105270AE02A4FBC
:10055000B84201D1062705E0284FB84201D107274C
:1005600000E0082707FA08F72743CCF80878DAF8FC
:1005700000405746D1F804C09C435FEACC2C00D51C
:100580001C433C60DBF800405F46D1F804C09C434C
:100590005FEA8C2C00D51C433C60DEF800407746B7
:1005A000D1F804C09C435FEA8C3C00D51C433C60FE
:1005B000084F083F3C68D1F804C09C435FEACC3C3C
:1005C00000D51C433C60521C102AFFF42FAFBDE83D
:1005D000F88F0000083C01404438024000300140E0
:1005E000000002400004024000080240000C0240EB
:1005F000001002400014024000180240001C02409B
:1006000001488068704700000400002002488168AB
:100610000278114481607047040000200B4810B537
:10062000016841F400710160016841F4806101607A
:10063000016841F480710160032000F077F8002028
:1006400000F006F800F024F8002010BD003C024045
:1006500070B50D4D04464FF47A712878B1FBF0F077
:100660000A490968B1FBF0F000F093F848B9102C82
:1006700007D200222146501E00F038F800206C609E
:1006800070BD012070BD000004000020100000209B
:1006900010B5032000F04AF80C48016841F4E0214D
:1006A0000160002211466FF00B0000F01FF80022DD
:1006B00011466FF00A0000F019F80022BDE8104062
:1006C00011466FF0090000F011B8000024ED00E0C1
:1006D000002809DB00F01F02012191404009800041
:1006E00000F1E020C0F8001170470000F0B40E4B9C
:1006F0001B680C46C3F30223C3F10705042D00D980
:100700000425191D072901D2002300E0DB1E012664
:1007100006FA05F1491E214099409E40761E16407A
:100720003143F0BC00F0F8B90CED00E0064900F0F0
:10073000070208684FF6FF03184040EA0220034A08
:1007400010430860704700000CED00E00000FA055F
:100750000448054900680968044AC1F38221515CD4
:10076000C840704710000020083802406E0B000897
:100770000448054900680968044AC1F34231515CE4
:10078000C840704710000020083802406E0B000877
:10079000704710B5401EB0F1807F01D3012010BD1D
:1007A0004FF0E02460610F21601700F0B5F90020E0
:1007B000A06107202061002010BD10B5FFF7E8FF01
:1007C00010BD70B5040004D094F83D00002510B1B0
:1007D00006E0012070BD84F83C50204600F022F86D
:1007E000242084F83D002068C16821F40051C160D4
:1007F000204600F0CFF82068016921F490410161A2
:100800002068416921F02A0141612068C16841F4F2
:100810000051C1602564202084F83D0084F83E002A
:10082000002070BD194810B5026886B0002142F45E
:1008300000320260006800F4003005901348103860
:10084000026842F0010202600068114C00F00100F1
:10085000059004200090022001900120CDE90201C2
:100860000720049069462046FFF7D2FD082000903B
:1008700069462046FFF7CCFD2620FFF729FF00221E
:100880000F212620FFF732FF06B010BD403802408E
:10089000000002402DE9F843044690F83D001F4651
:1008A00016460D4620284CD1C5B1BEB194F83C0087
:1008B000012846D0012084F83C004FF00008C4F81D
:1008C0004080212084F83D00FFF79AFEA6848146EF
:1008D000E684A068B0F5805F03D004E00120BDE8A5
:1008E000F883206928B12E465FF0000584F83C802B
:1008F0000EE00026FAE78021204600F0D1F8A0B9EA
:10090000AEB116F8010B21684860E08C401EE0840F
:10091000E08C4B464FF0000200970028EBD14FF0DF
:100920004001204600F0BCF830B10320D7E735F88D
:10093000020BC0F30800E6E7202084F83D00002009
:10094000CDE70220CBE710B5FFF760FEBDE8104011
:10095000FFF733BF0248016841F47001016070473E
:1009600088ED00E00A4810B5084901604FF4E13114
:10097000416000218160C160016181610C214161A0
:10098000FFF71FFF002800D0FEE710BD0044004025
:100990001400002070B5044600680169E26821F483
:1009A0004051114301612169A068E269084361690E
:1009B000114308432168CA6849F20C639A43024311
:1009C000CA6020684169A26921F440711143416104
:1009D00031492068884202D03049884202D1FFF76D
:1009E000C7FE01E0FFF7B4FEE26900231921642588
:1009F0003226B2F5004F626828D0A0FB0101930FA8
:100A00009200FFF731FC0146B0FBF5F06FF01802E1
:100A1000504301EB800006EB0010B0FBF5F000F056
:100A2000F002B1FBF5F002EB0012B1FBF5F06FF054
:100A30001803584301EB800006EB0010B0FBF5F003
:100A400000F00F0021681044886070BDA0FB010118
:100A500092185B41FFF708FC0146B0FBF5F002017C
:100A6000B1FBF5F06FF01803584301EB800006EB83
:100A7000C000B0FBF5F000F0F80002EB4002B1FB63
:100A8000F5F0584301EB800006EBC000B0FBF5F039
:100A900000F00700D6E700000010014000140140FC
:100AA0002DE9F041984617460E460446069D27E07C
:100AB000681C25D02DB1FFF7A3FDA0EB0800A842CC
:100AC0001ED920680C3050E8001F21F4D07140E896
:100AD0000012002AF5D12068143050E8001F21F0E0
:100AE000010140E80012002AF5D1202084F83D00E1
:100AF00084F83E00002084F83C000320BDE8F0812B
:100B00002068006836EA000004D00020B842CFD048
:100B10000020F3E70120F9E70907090E002804DBAC
:100B200000F1E02080F80014704700F00F0000F1A1
:100B3000E02080F8141D704710B5FFF76FFDFFF738
:100B400011FF064C2068FFF706FC82B24FF0FF331E
:100B500003482168FFF79EFE002010BD0000002022
:100B6000140000204FF04070E1EE100A70470000C2
:100B70000000010203040000546865206170706C7D
:100B800069636174696F6E2069732072756E6E6936
:100B90006E670D0A00000000B80B0008000000207E
:100BA00014000000C4010008CC0B00081400002051
:100BB000A4060000E0010008780B00080100000016
:0C0BC00010000000000000000024F40001
:040000050800018965
:00000001FF
