:020000040800F2
:100000005808002029020008D31A000863150008C8
:10001000D11A0008C5050008691D0008000000008D
:10002000000000000000000000000000B91C0008F3
:10003000C705000800000000D51A0008BB1C000816
:10004000430200084302000843020008430200087C
:100050004302000843020008C905000843020008E3
:10006000430200084302000843020008430200085C
:10007000430200084302000843020008430200084C
:10008000430200084302000843020008430200083C
:10009000430200084302000843020008430200082C
:1000A000430200084302000843020008430200081C
:1000B000430200084302000843020008430200080C
:1000C00043020008430200084302000843020008FC
:1000D00043020008430200084302000843020008EC
:1000E00043020008430200084302000843020008DC
:1000F00043020008430200084302000843020008CC
:1001000043020008430200084302000843020008BB
:1001100043020008430200084302000843020008AB
:10012000430200084302000843020008430200089B
:10013000430200084302000843020008430200088B
:10014000430200084302000843020008430200087B
:10015000430200084302000843020008430200086B
:10016000430200084302000843020008430200085B
:100170004302000843020008430200080000000098
:10018000430200084302000800F002F800F03CF8C7
:100190000AA090E8000C82448344AAF10107DA45E2
:1001A00001D100F031F8AFF2090EBAE80F0013F0F8
:1001B000010F18BFFB1A43F001031847641C00002D
:1001C000841C0000103A24BF78C878C1FAD85207BE
:1001D00024BF30C830C144BF04680C6070470000C1
:1001E0000023002400250026103A28BF78C1FBD840
:1001F000520728BF30C148BF0B6070471FB501F0E0
:10020000FDFD1FBD10B510BD00F0CFF81146FFF782
:10021000F5FF01F0BBFD00F0EDF803B4FFF7F2FFCE
:1002200003BC00F0F5F80000094880470948004782
:10023000FEE7FEE7FEE7FEE7FEE7FEE7FEE7FEE796
:10024000FEE7FEE704480549054A064B70470000F3
:10025000591D000889010008580200205808002094
:10026000580400205804002053EA020C00F0698072
:100270002DE9F04B4FF00006002B1FBFB3FA83F5BA
:1002800003FA05F424FA05F65E4012BF1643B2FAEB
:1002900082F502FA05F4C5F120051EBF22FA05FC1D
:1002A00044EA0C04203556EA044C4FEA144418BFC3
:1002B000641C4FF000084FF00009904271EB030CF2
:1002C00039D3002919BFB1FA81F701FA07F6B0FA5C
:1002D00080F700FA07F6C7F120071EBF20FA07FCD7
:1002E00046EA0C062037B6FBF4FCA7EB0507103FE7
:1002F00007F01F0BCBF120060CFA0BFB2CFA06F6CD
:1003000044BFB3460026202FA4BF5E464FF0000B2B
:100310005BEA060C08BF4FF0010B19EB0B09ABFBB6
:10032000027C48EB0608C01B06FB02CC0BFB03CC8F
:1003300071EB0C01C1E70B46024641464846BDE859
:10034000F08B13B54FF000004FF00001AFF30080C9
:10035000BDE81C4070474FF0000200B513469446BC
:100360009646203922BFA0E80C50A0E80C50B1F10D
:100370002001BFF4F7AF090728BFA0E80C5048BF21
:100380000CC05DF804EB890028BF40F8042B08BFBF
:10039000704748BF20F8022B11F0804F18BF00F8BB
:1003A000012B7047704770477047754600F02CF876
:1003B000AE4605006946534620F00700854618B052
:1003C00020B5FFF73FFFBDE820404FF000064FF09B
:1003D00000074FF000084FF0000B21F00701AC467A
:1003E000ACE8C009ACE8C009ACE8C009ACE8C00999
:1003F0008D46704710B50446AFF300802046BDE837
:100400001040FFF70ABF000000487047F8010020C5
:1004100001491820ABBEFEE726000200704700002D
:10042000104800B5026887B0002142F01002026057
:1004300000684FF4881200F0100005900220CDE90A
:100440000210CDE900026946074800F095F9002244
:100450000F21072000F0FEFB072000F0EDFB07B0A6
:1004600000BD000030380240001002400F4810B5B7
:10047000026886B0002142F01002026000680C4C55
:1004800000F010000590082000900120CDE9010146
:1004900003906946204600F06FF9012208212046AA
:1004A00000F06AFA01F0A0FB06B010BD303802403F
:1004B000001002402DE9F04114460546012A02D9F8
:1004C00041F0C00601E041F080060D4F00220821F6
:1004D000384600F051FA304601F0D2FB06E0002029
:1004E00001F0CEFB641E05F8010BA4B2002CF6D17E
:1004F0003846BDE8F0410122082100F03DBA000075
:10050000001002402DE9F041144605460E46012A2E
:1005100001D941F040060C4F00220821384600F076
:100520002BFA304601F0ACFB05E0287801F0A8FB7F
:10053000641EA4B26D1C002CF7D13846BDE8F04112
:100540000122082100F018BA0010024070B5094DD0
:1005500004462868016B00290AD0204688470649CE
:100560002868884204D120886188218040426080C8
:1005700070BD0000240000202800002070B50E4D42
:100580000124A86880470D4E3B2805D00C4DA86873
:1005900080473F2808D00CE035602968472088470D
:1005A00031682D20896A02E0356029686720884714
:1005B0000024204670BD00002800002024000020F8
:1005C0005C000020FEE77047012000F0C9B8000081
:1005D00070B5044600F0D6F90546601C02D0044808
:1005E0000078044400F0CEF9401BA042FAD370BD5D
:1005F000900000202DE9F04F0022DFF838B10126ED
:100600004FF00F0906FA02F401EA0403A3427DD178
:1006100022F003075F44D7F8088895074FEA157C56
:1006200009FA0CFA0AEA0805DFF80C81404502D104
:100630004FF0000832E0DFF80481404502D14FF06E
:1006400001082BE0DFF8F880404502D14FF00208A6
:1006500024E0DFF8F080404502D14FF003081DE0B0
:10066000DFF8E480404502D14FF0040816E0DFF8DF
:10067000DC80404502D14FF005080FE0DFF8D08064
:10068000404502D14FF0060808E0DFF8C880404539
:1006900002D14FF0070801E04FF0080808FA0CF803
:1006A000A84522D12C4DD5F800C02CEA030CC5F882
:1006B00000C005F1040CDCF800509D43CCF800505C
:1006C000254D0C35D5F800C02CEA030CC5F800C048
:1006D0002D1FD5F800C02CEA030CC5F800C0D7F8D0
:1006E000085825EA0A05C7F8085805685700032383
:1006F000BB409D430560D50800EB8505D5F820C0BB
:1007000057074FEAD76809FA08F700E00CE02CEA2F
:10071000070CC5F820C0C5689D43C5604568A54362
:10072000456084689C438460521C102AFFF46AAFC1
:10073000BDE8F08F0030014000000240000402409C
:1007400000080240000C0240001002400014024069
:1007500000180240001C0240003C014070470000AD
:10076000044910B50A68024202D00860FFF7F6FF9C
:1007700010BD0000143C01402DE9F84FDFF8BCA18A
:100780000022012503264FF00F090AF1040BAAF1FC
:10079000040E00BF0B6805FA02F42340A34270D197
:1007A0000F7907F00307012F01D0022F16D18768B8
:1007B0004FEA420806FA08FC27EA0C07D1F80CC0F9
:1007C0000CFA08FC4CEA070CC0F808C04768A743BD
:1007D0000C79C4F3001494403C4344600C79E44326
:1007E000A4070AD0C4684FEA420C06FA0CF7BC43CF
:1007F0008F6807FA0CF72743C7600C7904F00304ED
:10080000022C12D1D40800EB840CDCF820405707EE
:10081000FF0E09FA07F824EA0804D1F8108008FA54
:1008200007F848EA0408CCF8208004684FEA420C34
:1008300006FA0CF7BC430F7907F0030707FA0CF729
:10084000274307604C6814F4403F70D03C4C276845
:1008500047F480472760246822F0030704F48044AB
:100860000094384C07EB040CDCF8084897074FEA73
:10087000177809FA08F7BC43334FB84202D1002772
:1008800024E054E0314FB84201D101271EE0304F3F
:10089000B84201D1022719E02E4FB84201D10327F7
:1008A00014E02D4FB84201D104270FE02B4FB8427E
:1008B00001D105270AE02A4FB84201D1062705E0F9
:1008C000284FB84201D1072700E0082707FA08F7A8
:1008D0002743CCF80878DAF800405746D1F804C02E
:1008E0009C435FEACC2C00D51C433C60DBF8004005
:1008F0005F46D1F804C09C435FEA8C2C00D51C43B2
:100900003C60DEF800407746D1F804C09C435FEAC3
:100910008C3C00D51C433C60084F083F3C68D1F834
:1009200004C09C435FEACC3C00D51C433C60521C95
:10093000102AFFF42FAFBDE8F88F0000083C0140FB
:1009400044380240003001400000024000040240F0
:1009500000080240000C0240001002400014024057
:1009600000180240001C0240426921EA02030A40CA
:1009700043EA0241816170470AB18161704709040D
:10098000FBE70000014880687047000090000020ED
:1009900070B5040025D094F83D00002520B984F8F6
:1009A0003C50204600F0B8F8242084F83D00206830
:1009B000016821F0010101602068016841F40041F3
:1009C00001602068016821F40041016000F00EFA26
:1009D0004D4A6168914201D84C4900E04C49884237
:1009E00001D2012070BD4B492368B0FBF1F15E6874
:1009F00026F03F060E435E606368934206D94FF4CB
:100A0000967359434FF47A73B1FBF3F12368491C91
:100A10001E6A26F03F06314319626168914210D880
:100A20004900401EB0FBF1F2521CC2F30B02042A33
:100A300001D2042022E0B0FBF1F0401CC0F30B0017
:100A40001CE0A268F2B301EBC10303EB0116431EE5
:100A5000B3FBF6F35B1C43F480431B0549D092B310
:100A600001EBC10202EB0111401EB0FBF1F0401C92
:100A7000C0F30B0040F4804040F400402168CA6994
:100A80004CF6FF739A431043C861D4E90710014341
:100A90002068026822F0C00211430160D4E903011A
:100AA00001432068826848F2FF339A431143816012
:100AB000D4E9050108432168CA6822F0FF02104307
:100AC000C86001E00EE016E02068016841F0010115
:100AD00001602564202084F83D00256384F83E50A1
:100AE000002070BD01EB4106431EB3FBF6F35B1C17
:100AF000B3E70120C2E701EB4101401EB0FBF1F07A
:100B0000401CC0F30B00B7E7A086010080841E00E4
:100B100000093D0040420F0010B586B00446142184
:100B20006846FFF718FC13492068884220D1124814
:100B30000021026842F002020260006800F0020038
:100B40000590C02000901220CDE901010320039000
:100B50000420049069460948FFF70EFE064810304D
:100B6000016841F400110160006800F40010059074
:100B700006B010BD0054004030380240000402406E
:100B8000024881680278114481607047900000201B
:100B90000B4810B5016841F400710160016841F42F
:100BA00080610160016841F480710160032000F000
:100BB00071F8002000F006F800F024F8002010BDC5
:100BC000003C024070B50D4D04464FF47A71287810
:100BD000B1FBF0F00A490968B1FBF0F000F0ADFCA0
:100BE00048B9102C07D200222146501E00F032F8DE
:100BF00000206C6070BD012070BD000090000020DE
:100C00009C0000200B4882B0016841F480410160E3
:100C1000006800F4804000900648001F016841F021
:100C200080510160006800F080500090072002B001
:100C300000F030B844380240002809DB00F01F0201
:100C4000012191404009800000F1E020C0F800112E
:100C500070470000F0B40E4B1B680C46C3F3022330
:100C6000C3F10705042D00D90425191D072901D258
:100C7000002300E0DB1E012606FA05F1491E214093
:100C800099409E40761E16403143F0BC01F06DB88D
:100C90000CED00E0064900F0070208684FF6FF037C
:100CA000184040EA0220034A1043086070470000E1
:100CB0000CED00E00000FA052DE9F0470E460500B6
:100CC00065D0DFF81481D8F80000F7B200F0070013
:100CD000B04207D288F80070D8F8000000F0070092
:100CE000B04254D128683D4C810712D5400703D546
:100CF000206840F4E05020602878000703D5206881
:100D000040F4604020602068A96820F0F0000843AB
:100D100020602878C0072DD030496868083901283C
:100D200012D0022813D0032811D00968890700299E
:100D30002DDA216821F0030101432160FFF722FE33
:100D4000814641F2883A0EE009688903EFE70968B5
:100D50008901ECE7FFF716FEA0EB0901514502D926
:100D60000320BDE8F0872068696800F00C00B0EB54
:100D7000810FEFD1D8F80010404601F00701B142D1
:100D800007D90770006800F00700B04201D00120C9
:100D9000E7E72878400705D52068E96820F4E050A7
:100DA000084320602878000706D52068296920F4C8
:100DB000604040EAC100206000F028F82168084A3D
:100DC000C1F30311515CC840064908600648006839
:100DD000FFF7F8FE0020C4E7003C0240083802405C
:100DE000061E00089C0000209400002004480549CD
:100DF00000680968044AC1F38221515CC840704709
:100E00009C00002008380240161E0008154810B546
:100E1000006810F00C02144813D04110042A0FD0BF
:100E2000082A0ED10F4C241F2268236802F03F02CB
:100E30005B0207D52068C0F38810A0FB010106E023
:100E4000084610BD2168C1F38811A1FB00010023F1
:100E5000FFF70AFA2168C1F30141491C4900B0FBC0
:100E6000F1F010BD083802400024F4002DE9F84FDD
:100E700004006ED02078DFF84C93C007A9F1040578
:100E80004AD009F104000168C1F38101012908D0A9
:100E90000068C0F3810002280AD1D9F8000040029E
:100EA00006D52868800337D560680028E1D033E094
:100EB0006068B0F5803F10D0B0F5A02F286810D042
:100EC00020F480302860286820F480202860606842
:100ED000A8B1FFF757FD06460DE0286840F48030C2
:100EE000F4E740F480202860F7E700BFFFF74AFDF1
:100EF000801B642873D828688003F7D50CE0FFF7BF
:100F000041FD064605E000BFFFF73CFD801B64285D
:100F1000F0D828688003F7D42078DFF8AC82800707
:100F20004FF0000A3ED5A748001D016811F00C0FD4
:100F300008D00068C0F3810002280BD1D9F8000066
:100F4000400207D42868800716D5E068012800D140
:100F500012E033E1E068B8B10120C8F80000FFF703
:100F600011FD064605E000BFFFF70CFD801B0228BF
:100F7000C0D828688007F7D52868216920F0F800D4
:100F800040EAC10028600DE0C8F800A0FFF7FAFCB5
:100F9000064604E0FFF7F6FC801B02281FD82868ED
:100FA0008007F7D42078000722D5864F87486169EB
:100FB000703771B101210160FFF7E4FC064604E0DF
:100FC000FFF7E0FC801B022809D838688007F7D5B6
:100FD0000EE0C0F800A0FFF7D5FC064605E082E071
:100FE000FFF7D0FC801B02287DD838688007F7D433
:100FF0002078400768D5DFF8CCB100270BF13C0B17
:10100000DBF80000C0000BD4DBF8001041F0805189
:10101000CBF80010DBF80000012700F080500090B2
:101020006B4E3068C00510D4306840F4807030607A
:10103000FFF7A8FC009005E0FFF7A4FC0099401A18
:10104000022850D83068C005F6D55E4EA0686C36D0
:1010500001280FD00528306810D020F00100306042
:10106000306820F004003060A068B8B1FFF78AFC57
:1010700000900FE0306840F00100F4E740F0040019
:101080003060F7E7FFF77EFC0099411A41F28830A3
:10109000814266D830688007F4D50EE0FFF772FC15
:1010A000009007E0FFF76EFC0099411A41F288308A
:1010B000814256D830688007F4D42FB1DBF8001095
:1010C00021F08051CBF80010A069C8B33D49091D3B
:1010D0000968C1F3810102294AD00228504607D08D
:1010E000C8F8600000E03CE0FFF74CFC04463BE041
:1010F0004746C8F86000FFF745FC064605E000BF1C
:10110000FFF740FC801B02282BD828688001F7D409
:10111000D4E907010843A16A2E4A490802EB0141BC
:10112000626A41EA8211084394F82C1040EA016196
:10113000C9F8001001203866FFF724FC044606E0D9
:101140003EE000BFFFF71EFC001B022809D82868FC
:101150008001F7D534E000BFFFF714FC001B022824
:1011600002D90320BDE8F88F28688001F4D427E075
:101170000128F7D0D9F80000E26900F4800191421B
:101180001CD1226A00F03F01914217D147F6C0718D
:10119000626A0140B1EB821F10D1A26A4FF0FF33A7
:1011A00000F4403103EB5202B1EB024F06D194F848
:1011B0002C1000F07060B0EB016F01D00120D1E77E
:1011C0000020CFE70438024000004742800E47422B
:1011D000007000400000FFFF10B5040011D0022095
:1011E00084F851002068016821F040010160204628
:1011F00000F06AF80020606584F8510084F850001F
:1012000010BD012010BD90F85100704770B504006A
:1012100009D0606A002540B125616561A56294F836
:10122000510040B10CE0012070BD6068B0F5827FD4
:10123000F4D0E561F2E784F85050204600F058F809
:10124000022084F851002068016821F0400101600B
:10125000A088218900F4827001F404410843A18927
:1012600001F400610843217C01F002010843217D63
:1012700001F001010843218B01F400710843217F33
:1012800001F03801084394F8201001F08001084370
:10129000218D01F40051084321680860A0690421F0
:1012A00001EA104094F8241001F01001084321686D
:1012B00048602068C16921F40061C1616565012051
:1012C00084F85100002070BD00680649884208D1AA
:1012D0000548016821F480510160E0210348FFF7CF
:1012E00089B9704700300140443802400000024094
:1012F00010B586B0044614216846FFF72CF8134950
:101300002068884220D112480021026842F48052AD
:101310000260006800F4805005900D48143802689F
:1013200042F001020260006800F001000590E02038
:1013300000900220CDE901010320039005200490D4
:1013400069460448FFF718FA06B010BD00300140A6
:1013500044380240000002402DE9F84F044690F85E
:10136000500000270A9E1D4692468B464FF0010909
:1013700001280ED0012084F85000FFF703FB8046BF
:1013800094F85100616801280CD0B1F5827F07D133
:1013900002E00220BDE8F88FA16809B9042801D055
:1013A0000227C2E0BBF1000F27D0BAF1000F24D012
:1013B0001DB394F85100042802D0052084F8510090
:1013C00000206065C4F838A0E587A587C4F830B070
:1013D000E586A5862064606420680168490603D418
:1013E000016841F040010160E068B0F5006F60689D
:1013F00005D0E8B3012D46D07FE0012795E008B184
:10140000012D39D1206B21680088C860206B801CB9
:101410002063E08E401EE0862EE020688168890708
:101420000FD5E18E69B1B9F1010F0AD1216B09889D
:10143000C160206B801C2063E08E401EE0864FF070
:10144000000920688168C9070CD0E18F51B1C068DC
:10145000A16B0880A06B801CA063E08F401EE0871A
:101460004FF00109FFF78EFAA0EB0800B04200E050
:1014700009E001D3701C50D1E08E0028CDD1E08F5F
:101480000028CAD13FE0206B216800780873206BE8
:10149000401C2063E08E401EE0862EE020688168BC
:1014A00089070FD5E18E69B1B9F1010F0AD1216B1E
:1014B00009780173206B401C2063E08E401EE0869B
:1014C0004FF0000920688168C9070CD0E18F51B145
:1014D000C068A16B0870A06B401CA063E08F401E29
:1014E000E0874FF00109FFF74DFAA0EB0800B0428A
:1014F00002D3701C01D010E07EB1E08E0028CDD167
:10150000E08F0028CAD142463146204600F0E4FA76
:1015100028B101272020606507E0032705E0A068C7
:1015200018B92068C16880680090012084F85100D3
:10153000002084F8500038462CE710B5401EB0F16A
:10154000807F01D3012010BD4FF0E02460610F21A6
:10155000601700F00AFC0020A06107202061002035
:1015600010BDFEE70EB500208DF8000001223921E4
:101570006846FEF79FFF0622272101A8FEF79AFF83
:101580000EBD1CB500208DF80000FEF749FF40207D
:101590008DF8040010208DF8050020208DF806003D
:1015A00001A800F067F83F208DF8000001222221F9
:1015B0006846FEF7A7FF50208DF800000122382171
:1015C0006846FEF79FFFAA208DF8000001223B210C
:1015D0006846FEF797FF0A208DF8000001223C21A3
:1015E0006846FEF78FFF4C208DF800000122302165
:1015F0006846FEF787FF03208DF8000001223D2199
:101600006846FEF77FFF7F248DF8004001223E21CF
:101610006846FEF777FF8DF8004001223F216846BB
:10162000FEF770FF1CBD704738B5044600208DF8EA
:101630000000012221216846FEF73CFF9DF80000D2
:10164000012200F0D00020438DF8000021216846DF
:10165000FEF758FF38BD38B5044600208DF800006D
:10166000FEF704FF8DF80040012220216846FEF7B6
:1016700049FF38BD38B5044600208DF8000001222E
:1016800038216846FEF716FF20786178012208436A
:10169000A17808438DF8000038216846FEF732FF34
:1016A00038BD000070B588B006461225002401221E
:1016B000202106A8FEF7FEFE0622292103A8FEF738
:1016C000F9FE03A90DF1040001EB440292F9002098
:1016D00020F81420641CE4B2032CF5D39DF81810F4
:1016E00011F0200102D0202903D101E0122500E0F1
:1016F0004825002130F8112012FB05F226F81120B0
:10170000491CC9B20329F5D308B070BD08B5002043
:101710008DF80000FEF7AAFE01220F216846FEF7B1
:10172000C9FE9DF8000008BD08B5012221216846C8
:10173000FEF7C0FE9DF80000012240F040008DF849
:10174000000021216846FEF7DDFE08BD3EB50024FD
:101750008DF80040FEF764FE8DF805408DF80440DA
:1017600040208DF8060001258DF809508DF80740BE
:101770008DF80A4001A800F06AF803208DF80000F7
:10178000012252216846FEF7BDFEC8208DF80000F8
:10179000012254216846FEF7B5FE45208DF8000071
:1017A000012256216846FEF7ADFEFC208DF80000B0
:1017B00001225A216846FEF7A5FEA1208DF80000FF
:1017C00001225B216846FEF79DFE8DF80050012244
:1017D0005C216846FEF796FE01227B216846FEF7F3
:1017E00091FE012260216846FEF78CFE06208DF8EE
:1017F0000000012261216846FEF784FE28208DF852
:101800000000012262216846FEF77CFE11208DF85F
:101810000000012263216846FEF774FE3EBD70475A
:1018200038B5044600208DF80000FEF71FFE8DF845
:101830000040012220216846FEF764FE200A8DF850
:101840000000012224216846FEF75CFE38BD38B551
:10185000044600208DF800006078217801220843BA
:10186000A17808438DF8000023216846FEF74AFE60
:10187000E0782179012208438DF800002121684693
:10188000FEF740FE6079A179012208438DF800003F
:1018900022216846FEF736FE38BD000070B50646C8
:1018A0002DED028B84B000259FED2E8A012224218C
:1018B00002A8FEF7FFFD012228216846FEF7FAFD87
:1018C0006C4601222921601CFEF7F4FD01222A2129
:1018D000A01CFEF7EFFD01222B21E01CFEF7EAFD24
:1018E00001222C21201DFEF7E5FD01222D21601D86
:1018F000FEF7E0FD9DF8080000F0380010280CD03D
:1019000003DC90B1082810D104E0182808D0202862
:101910000BD108E09FED148A07E09FED148A04E0E4
:101920009FED138A01E09FED138A04EB450090F9C7
:10193000001090F9010001EB002000EE100AB8EE53
:10194000C00A20EE080ABDEEC00A10EE100A26F802
:1019500015006D1CEDB2032DE7D304B0BDEC028B76
:1019600070BD00008FC2753D8FC2F53DEC51383E11
:101970008FC2753E48E13A3F08B500208DF800005F
:10198000FEF774FD01220F216846FEF793FD9DF8D6
:10199000000008BD08B5012225216846FEF78AFD32
:1019A0009DF80000012240F080008DF80000252104
:1019B0006846FEF7A7FD08BD2DE9F04186B0142169
:1019C0006846FEF7C8FC2F480024016841F010016A
:1019D0000160016801F010010591016841F080018A
:1019E0000160016801F080010591016841F0010189
:1019F0000160016801F001010591016841F00801F1
:101A00000160016801F008010591016841F00201DF
:101A100001600068DFF8708000F00200059001228C
:101A200008214046FEF7A8FF184F4FF470460022E9
:101A300031463846FEF7A0FF082000900125CDE989
:101A40000154694640460394FEF796FE0096CDE9A0
:101A50000154694638460394FEF78EFE4FF4881011
:101A60000095CDE9010469464046FEF785FE002257
:101A700011460620FFF7EEF80620FFF7DDF806B066
:101A8000BDE8F0813038024000100240000C0240F6
:101A90000E4810B50C4901604FF48271416000217D
:101AA0008160C1604FF400720161C0E90512C1613B
:101AB0000162416281620A21C162FFF7A7FB00282F
:101AC00001D072B6FEE710BD00300140A001002039
:101AD000FEE7FEE77047000038B504461248134B96
:101AE0000068B0FBF3F04FF47A73584300906068DD
:101AF000B0F5827F0DD10B46009200228021204656
:101B000000F016F870B1606D40F0200060650320B1
:101B100038BD009830B1401E009020688068C043F6
:101B20000006F6D5002038BD9C00002000366E016E
:101B30002DE9F8431E46914688460446089DFEF767
:101B400021FF401B351AFEF71DFF07462548006898
:101B5000C0F3CB30684338E0701C37D0FEF712FF7B
:101B6000C01BA84203D215B1009860B32CE02068D6
:101B7000416821F0E00141606068B0F5827F0BD1DF
:101B8000A068B0F5004F02D0B0F5806F04D1206896
:101B9000016821F040010160A06AB0F5005F09D141
:101BA0002068016821F4005101602068016841F457
:101BB00000510160012084F85100002084F8500099
:101BC0000320BDE8F8830025401E0090206881684E
:101BD00038EA010004D000214945BDD10020F0E7DA
:101BE0000121F9E79C00002000B587B02048FFF7ED
:101BF0000AFB00283AD11E481E4901601821C16124
:101C000000218160416107220161C0E90A12C160BF
:101C10004FF400720162826141624FF4827141604F
:101C20001548016841F480510160006800F480505B
:101C3000059011481438016841F001010160006805
:101C4000694600F001000590E0200090022001901C
:101C5000029001200390052004900848FEF78CFDB7
:101C600007B003485DF804EBFFF7D0BA07B000BD3A
:101C7000A000002000300140443802400000024033
:101C800001B582B000208DF804000948012301AAA3
:101C90008068009002A90748FFF75EFB20B1054865
:101CA000FFF79AFAFFF7A0FF9DF804000EBD0000B1
:101CB00000000020A00000207047FEF761BF000078
:101CC00030B593B030216846FEF745FB14210CA8CF
:101CD000FEF741FB1E480025016841F0805101607C
:101CE000006800F0805011901A48016841F480416A
:101CF00001600068022400F48040119001200090EF
:101D0000000401908001CDE90640082008904FF4BE
:101D1000A870CDE9090407200B906846FFF7A6F8E4
:101D200008B172B6FEE70CA90F2081E831004FF42C
:101D3000A0500F904FF48050109005210CA8FEF792
:101D4000BBFF002801D072B6FEE713B030BD000023
:101D500040380240007000400248016841F47001C0
:101D60000160704788ED00E0FEE70907090E0028D2
:101D700004DB00F1E02080F80014704700F00F0051
:101D800000F1E02080F8141D70470000FEF700FF0E
:101D9000FFF796FFFFF710FEFFF77AFE1348124990
:101DA0004FF4804201601249416000218160C0E926
:101DB000031241618161C1610162FEF7E9FD08B171
:101DC00072B6FEE7FEF7DAFB50B10A4D4FF47044ED
:101DD00021462846FEF7C8FDC820FEF7F9FBF7E7C5
:101DE0000548FEF7B3FBFBE7005400404C01002020
:101DF000A0860100000C02401C0000204FF0407043
:101E0000E1EE100A7047000000000000000001022F
:101E10000304060708090000000001020304000093
:101E2000401E000800000020A0000000C4010008BF
:101E3000E01E0008A0000020B8070000E001000834
:101E4000000002400010000000100000000C0240E2
:101E5000000C0240000C0240000C02400000000098
:101E600000000000000000005716000827160008B8
:101E70000D1700082917000883150008000000004E
:101E800000000000000000000000000065150008D0
:101E90002916000800000000A516000821180008F7
:101EA0001F18000879190008951900084D17000837
:101EB0000000000000000000000000000000000022
:101EC0000000000000000000000000009D18000855
:101ED0000100000010000000000000000024F400D9
:040000050800018965
:00000001FF
