:020000040800F2
:10000000D006002029020008FB1200083712000861
:10001000F91200081F0400081D1500080000000068
:100020000000000000000000000000006D14000847
:100030002104000800000000FD1200086F140008F1
:10004000430200084302000843020008430200087C
:10005000430200084302000843020008430200086C
:10006000430200084302000843020008430200085C
:10007000430200084302000843020008430200084C
:10008000430200084302000843020008430200083C
:10009000430200084302000843020008430200082C
:1000A000430200084302000843020008430200081C
:1000B000430200084302000843020008430200080C
:1000C00043020008430200084302000843020008FC
:1000D00043020008430200084302000843020008EC
:1000E00043020008430200084302000843020008DC
:1000F00043020008430200084302000843020008CC
:1001000043020008430200084302000843020008BB
:1001100043020008430200084302000843020008AB
:10012000430200084302000843020008430200089B
:10013000430200084302000843020008430200088B
:10014000430200084302000843020008430200087B
:10015000430200084302000843020008430200086B
:10016000430200084302000843020008430200085B
:100170004302000843020008430200080000000098
:10018000430200084302000800F002F800F03CF8C7
:100190000AA090E8000C82448344AAF10107DA45E2
:1001A00001D100F031F8AFF2090EBAE80F0013F0F8
:1001B000010F18BFFB1A43F001031847F4130000A6
:1001C00014140000103A24BF78C878C1FAD8520736
:1001D00024BF30C830C144BF04680C6070470000C1
:1001E0000023002400250026103A28BF78C1FBD840
:1001F000520728BF30C148BF0B6070471FB501F0E0
:10020000C9F91FBD10B510BD00F0CFF81146FFF7BA
:10021000F5FF01F095F900F0EDF803B4FFF7F2FFF8
:1002200003BC00F0F5F80000094880470948004782
:10023000FEE7FEE7FEE7FEE7FEE7FEE7FEE7FEE796
:10024000FEE7FEE704480549054A064B70470000F3
:100250000D15000889010008D0000020D0060020FC
:10026000D0020020D002002053EA020C00F0698086
:100270002DE9F04B4FF00006002B1FBFB3FA83F5BA
:1002800003FA05F424FA05F65E4012BF1643B2FAEB
:1002900082F502FA05F4C5F120051EBF22FA05FC1D
:1002A00044EA0C04203556EA044C4FEA144418BFC3
:1002B000641C4FF000084FF00009904271EB030CF2
:1002C00039D3002919BFB1FA81F701FA07F6B0FA5C
:1002D00080F700FA07F6C7F120071EBF20FA07FCD7
:1002E00046EA0C062037B6FBF4FCA7EB0507103FE7
:1002F00007F01F0BCBF120060CFA0BFB2CFA06F6CD
:1003000044BFB3460026202FA4BF5E464FF0000B2B
:100310005BEA060C08BF4FF0010B19EB0B09ABFBB6
:10032000027C48EB0608C01B06FB02CC0BFB03CC8F
:1003300071EB0C01C1E70B46024641464846BDE859
:10034000F08B13B54FF000004FF00001AFF30080C9
:10035000BDE81C4070474FF0000200B513469446BC
:100360009646203922BFA0E80C50A0E80C50B1F10D
:100370002001BFF4F7AF090728BFA0E80C5048BF21
:100380000CC05DF804EB890028BF40F8042B08BFBF
:10039000704748BF20F8022B11F0804F18BF00F8BB
:1003A000012B7047704770477047754600F02CF876
:1003B000AE4605006946534620F00700854618B052
:1003C00020B5FFF73FFFBDE820404FF000064FF09B
:1003D00000074FF000084FF0000B21F00701AC467A
:1003E000ACE8C009ACE8C009ACE8C009ACE8C00999
:1003F0008D46704710B50446AFF300802046BDE837
:100400001040FFF70ABF0000004870476C00002052
:1004100001491820ABBEFEE7260002007047FEE748
:10042000704700002DE9F84FDFF8BCA1002201253C
:1004300003264FF00F090AF1040BAAF1040E00BFC6
:100440000B6805FA02F42340A34270D10F7907F03C
:100450000307012F01D0022F16D187684FEA420807
:1004600006FA08FC27EA0C07D1F80CC00CFA08FCC5
:100470004CEA070CC0F808C04768A7430C79C4F3DE
:10048000001494403C4344600C79E443A4070AD030
:10049000C4684FEA420C06FA0CF7BC438F6807FAAF
:1004A0000CF72743C7600C7904F00304022C12D127
:1004B000D40800EB840CDCF820405707FF0E09FA43
:1004C00007F824EA0804D1F8108008FA07F848EA87
:1004D0000408CCF8208004684FEA420C06FA0CF7B6
:1004E000BC430F7907F0030707FA0CF727430760AF
:1004F0004C6814F4403F70D03C4C276847F4804768
:100500002760246822F0030704F480440094384CE8
:1005100007EB040CDCF8084897074FEA177809FA4C
:1005200008F7BC43334FB84202D1002724E054E01F
:10053000314FB84201D101271EE0304FB84201D1FE
:10054000022719E02E4FB84201D1032714E02D4FA6
:10055000B84201D104270FE02B4FB84201D1052743
:100560000AE02A4FB84201D1062705E0284FB842D9
:1005700001D1072700E0082707FA08F72743CCF83E
:100580000878DAF800405746D1F804C09C435FEA87
:10059000CC2C00D51C433C60DBF800405F46D1F812
:1005A00004C09C435FEA8C2C00D51C433C60DEF801
:1005B00000407746D1F804C09C435FEA8C3C00D5EC
:1005C0001C433C60084F083F3C68D1F804C09C4382
:1005D0005FEACC3C00D51C433C60521C102AFFF45F
:1005E0002FAFBDE8F88F0000083C014044380240BE
:1005F00000300140000002400004024000080240B8
:10060000000C02400010024000140240001802409A
:10061000001C02400AB1816170470904FBE7000039
:10062000014880687047000004000020024881688B
:100630000278114481607047040000200B4810B517
:10064000016841F400710160016841F4806101605A
:10065000016841F480710160032000F063F800201C
:1006600000F006F800F024F8002010BD003C024025
:1006700070B50D4D04464FF47A712878B1FBF0F057
:100680000A490968B1FBF0F000F0C1FD48B9102C2F
:1006900007D200222146501E00F024F800206C6092
:1006A00070BD012070BD000004000020100000207B
:1006B0000B4882B0016841F480410160006800F499
:1006C000804000900648001F016841F080510160A1
:1006D000006800F080500090072002B000F022B8BF
:1006E00044380240F0B40E4B1B680C46C3F302239F
:1006F000C3F10705042D00D90425191D072901D2CE
:10070000002300E0DB1E012606FA05F1491E214008
:1007100099409E40761E16403143F0BC00F0FFBE6B
:100720000CED00E0064900F0070208684FF6FF03F1
:10073000184040EA0220034A104308607047000056
:100740000CED00E00000FA052DE9F0470E4605002B
:1007500065D0DFF81481D8F80000F7B200F0070088
:10076000B04207D288F80070D8F8000000F0070007
:10077000B04254D128683D4C810712D5400703D5BB
:10078000206840F4E05020602878000703D52068F6
:1007900040F4604020602068A96820F0F000084321
:1007A00020602878C0072DD03049686808390128B2
:1007B00012D0022813D0032811D009688907002914
:1007C0002DDA216821F0030101432160FFF728FFA2
:1007D000814641F2883A0EE009688903EFE709682B
:1007E0008901ECE7FFF71CFFA0EB0901514502D995
:1007F0000320BDE8F0872068696800F00C00B0EBCA
:10080000810FEFD1D8F80010404601F00701B14246
:1008100007D90770006800F00700B04201D001203E
:10082000E7E72878400705D52068E96820F4E0501C
:10083000084320602878000706D52068296920F43D
:10084000604040EAC100206000F018F82168084AC2
:10085000C1F30311515CC8400649086006480068AE
:10086000FFF706FF0020C4E7003C024008380240C2
:100870009E1500081000002008000020154810B543
:10088000006810F00C02144813D04110042A0FD055
:10089000082A0ED10F4C241F2268236802F03F0261
:1008A0005B0207D52068C0F38810A0FB010106E0B9
:1008B000084610BD2168C1F38811A1FB0001002387
:1008C000FFF7D2FC2168C1F30141491C4900B0FB8C
:1008D000F1F010BD083802400024F4002DE9F84F73
:1008E00004006ED02078DFF84C93C007A9F104050E
:1008F0004AD009F104000168C1F38101012908D03F
:100900000068C0F3810002280AD1D9F80000400233
:1009100006D52868800337D560680028E1D033E029
:100920006068B0F5803F10D0B0F5A02F286810D0D7
:1009300020F480302860286820F4802028606068D7
:10094000A8B1FFF76DFE06460DE0286840F4803040
:10095000F4E740F480202860F7E700BFFFF760FE6F
:10096000801B642873D828688003F7D50CE0FFF754
:1009700057FE064605E000BFFFF752FE801B6428C5
:10098000F0D828688003F7D42078DFF8AC8280079D
:100990004FF0000A3ED5A748001D016811F00C0F6A
:1009A00008D00068C0F3810002280BD1D9F80000FC
:1009B000400207D42868800716D5E068012800D1D6
:1009C00012E033E1E068B8B10120C8F80000FFF799
:1009D00027FE064605E000BFFFF722FE801B022827
:1009E000C0D828688007F7D52868216920F0F8006A
:1009F00040EAC10028600DE0C8F800A0FFF710FE33
:100A0000064604E0FFF70CFE801B02281FD828686A
:100A10008007F7D42078000722D5864F8748616980
:100A2000703771B101210160FFF7FAFD064604E05D
:100A3000FFF7F6FD801B022809D838688007F7D534
:100A40000EE0C0F800A0FFF7EBFD064605E082E0EF
:100A5000FFF7E6FD801B02287DD838688007F7D4B1
:100A60002078400768D5DFF8CCB100270BF13C0BAC
:100A7000DBF80000C0000BD4DBF8001041F080511F
:100A8000CBF80010DBF80000012700F08050009048
:100A90006B4E3068C00510D4306840F48070306010
:100AA000FFF7BEFD009005E0FFF7BAFD0099401A80
:100AB000022850D83068C005F6D55E4EA0686C3666
:100AC00001280FD00528306810D020F001003060D8
:100AD000306820F004003060A068B8B1FFF7A0FDD6
:100AE00000900FE0306840F00100F4E740F00400AF
:100AF0003060F7E7FFF794FD0099411A41F2883022
:100B0000814266D830688007F4D50EE0FFF788FD93
:100B1000009007E0FFF784FD0099411A41F2883008
:100B2000814256D830688007F4D42FB1DBF800102A
:100B300021F08051CBF80010A069C8B33D49091DD0
:100B40000968C1F3810102294AD00228504607D022
:100B5000C8F8600000E03CE0FFF762FD04463BE0BF
:100B60004746C8F86000FFF75BFD064605E000BF9A
:100B7000FFF756FD801B02282BD828688001F7D488
:100B8000D4E907010843A16A2E4A490802EB014152
:100B9000626A41EA8211084394F82C1040EA01612C
:100BA000C9F8001001203866FFF73AFD044606E058
:100BB0003EE000BFFFF734FD001B022809D828687B
:100BC0008001F7D534E000BFFFF72AFD001B0228A3
:100BD00002D90320BDE8F88F28688001F4D427E00B
:100BE0000128F7D0D9F80000E26900F480019142B1
:100BF0001CD1226A00F03F01914217D147F6C07123
:100C0000626A0140B1EB821F10D1A26A4FF0FF333C
:100C100000F4403103EB5202B1EB024F06D194F8DD
:100C20002C1000F07060B0EB016F01D00120D1E713
:100C30000020CFE70438024000004742800E4742C0
:100C4000007000400000FFFF70B5040009D0606A2A
:100C5000002540B125616561A56294F8510040B15D
:100C60000CE0012070BD6068B0F5827FF4D0E561D2
:100C7000F2E784F85050204600F044F8022084F84F
:100C800051002068016821F040010160A08821899D
:100C900000F4827001F404410843A18901F4006169
:100CA0000843217C01F002010843217D01F001018C
:100CB0000843218B01F400710843217F01F03801C2
:100CC000084394F8201001F080010843218D01F4BD
:100CD0000051084321680860A069042101EA10401E
:100CE00094F8241001F0100108432168486020683E
:100CF000C16921F40061C1616565012084F851007A
:100D0000002070BD10B586B0044614216846FFF778
:100D100022FB13492068884220D112480021026832
:100D200042F480520260006800F4805005900D4843
:100D30001438026842F001020260006800F001000D
:100D40000590E02000900220CDE9010103200390EE
:100D50000520049069460448FFF764FB06B010BD07
:100D60000030014044380240000002402DE9F84FB5
:100D7000044640680025984616460F464FF0040B7F
:100D8000B0F5827F01D1A06888B194F850000128A5
:100D900018D0012084F85000FFF742FC814694F8F7
:100DA00051004FF0000A01280ED0022582E084F89D
:100DB00051B013460A462046CDF8008000F036F9BF
:100DC000BDE8F88F0220FBE7002F72D0002E70D014
:100DD00084F851B0C4F854A0A763A687E687C4F886
:100DE00030A0A4F834A0A4F836A0C4F840A0C4F8F9
:100DF00044A0A068B0F5004F09D12068016821F037
:100E0000400101602068016821F480410160206890
:100E10000168490603D4016841F040010160E068BF
:100E2000D8B139E020688168C90709D0007BA16B7F
:100E30000870A06B401CA063E08F401EE0870CE0B0
:100E4000FFF7EEFBA0EB0901414503D3B8F1FF3FEB
:100E500003D036E0B8F1000F33D0E08F0028E1D1A5
:100E60001DE020688168C90709D0C068A16B0880AF
:100E7000A06B801CA063E08F401EE0870CE0FFF7B2
:100E8000CFFBA0EB0901414503D3B8F1FF3F03D0ED
:100E900017E0B8F1000F14D0E08F0028E1D14A46E6
:100EA0004146204600F02BFA08B120206065606DB5
:100EB00000B10125012084F8510084F850A0284693
:100EC0007EE70325F6E72DE9F84F044690F8500039
:100ED00000271D461646894601280DD04FF0010B0C
:100EE00084F850B0FFF79CFB804694F85100BA4656
:100EF000012804D0022793E00220BDE8F88FB9F161
:100F0000000F73D0002E71D0032084F85100C4F874
:100F100054A0C4F83090A686E686C4F838A0A4F899
:100F20003CA0A4F83EA0C4F844A0C4F840A0A06827
:100F3000B0F5004F09D12068016821F0400101603F
:100F40002068016841F48041016020680168490619
:100F500003D4016841F040010160E068B0F5006F22
:100F6000606803D030B3012E24D041E008B1012ED7
:100F70001CD1206B21680088C86006E02068816869
:100F8000890709D5216B0988C160206B801C20630B
:100F9000E08E401EE08609E0FFF742FBA0EB080070
:100FA000A84202D3681C01D031E07DB3E08E002856
:100FB000E4D120E0206B21680078087306E0206807
:100FC0008168890709D5216B09780173206B401C62
:100FD0002063E08E401EE0860AE0FFF721FBA0EBD5
:100FE0000800A84203D3681C02D010E017E06DB1DE
:100FF000E08E0028E3D142462946204600F0AEF9B3
:1010000008B120206065A06818B106E0FFE703275B
:1010100006E02068C16880680090606D00B101271B
:1010200084F851B084F850A0384666E72DE9F84FAF
:10103000044690F8500000270A9E1D4692468B46B3
:101040004FF0010901280ED0012084F85000FFF76D
:10105000E7FA804694F85100616801280CD0B1F598
:10106000827F07D102E00220BDE8F88FA16809B9AC
:10107000042801D00227C2E0BBF1000F27D0BAF14B
:10108000000F24D01DB394F85100042802D005208D
:1010900084F8510000206065C4F838A0E587A58772
:1010A000C4F830B0E586A5862064606420680168D5
:1010B000490603D4016841F040010160E068B0F5E1
:1010C000006F606805D0E8B3012D46D07FE00127AE
:1010D00095E008B1012D39D1206B21680088C860E6
:1010E000206B801C2063E08E401EE0862EE020688E
:1010F000816889070FD5E18E69B1B9F1010F0AD175
:10110000216B0988C160206B801C2063E08E401E2B
:10111000E0864FF0000920688168C9070CD0E18F94
:1011200051B1C068A16B0880A06B801CA063E08FE8
:10113000401EE0874FF00109FFF772FAA0EB0800AC
:10114000B04200E009E001D3701C50D1E08E0028CD
:10115000CDD1E08F0028CAD13FE0206B2168007814
:101160000873206B401C2063E08E401EE0862EE05A
:101170002068816889070FD5E18E69B1B9F1010F47
:101180000AD1216B09780173206B401C2063E08E2B
:10119000401EE0864FF0000920688168C9070CD026
:1011A000E18F51B1C068A16B0870A06B401CA063B7
:1011B000E08F401EE0874FF00109FFF731FAA0EB06
:1011C0000800B04202D3701C01D010E07EB1E08E66
:1011D0000028CDD1E08F0028CAD1424631462046B2
:1011E00000F0BCF828B101272020606507E0032744
:1011F00005E0A06818B92068C168806800900120E7
:1012000084F85100002084F8500038462CE710B5CF
:10121000401EB0F1807F01D3012010BD4FF0E024CB
:1012200060610F21601700F07AF90020A0610720AB
:101230002061002010BDFEE730B587B0142168465C
:10124000FFF789F819480024016841F08001016026
:10125000016801F080010591016841F00101016020
:10126000016801F001010591016841F00801016088
:1012700000680F4D00F00800059000224FF4704107
:101280002846FFF7C7F9012280212846FFF7C2F957
:101290004FF2800000900120CDE901046946284604
:1012A0000394FFF7BFF807B030BD000030380240AC
:1012B000000C02400F4810B50D4901604FF48271D7
:1012C000416000218160C1604FF400720161C0E99A
:1012D00005121022C0E90721416281620A21C16220
:1012E000FFF7B2FC002801D072B6FEE710BD000087
:1012F0000030014014000020FEE7FEE77047F8B51B
:10130000044640684FF48273984221D1A0684FF49C
:101310008065B0F5004F01D0A8420AD12068066868
:1013200026F0400606606068984211D1A068A84285
:101330000ED000920B4600228021204600F03AF8A1
:10134000002804D0606D40F0200060650320F8BDE7
:1013500000920B4600220121EFE7000038B5044659
:101360001248134B0068B0FBF3F04FF47A73584304
:1013700000906068B0F5827F0DD10B46009200228C
:101380008021204600F016F870B1606D40F020001A
:101390006065032038BD009830B1401E0090206881
:1013A0008068C0430006F6D5002038BD100000203C
:1013B00000366E012DE9F8431E46914688460446E4
:1013C000089DFFF72DF9401B351AFFF729F907464D
:1013D00025480068C0F3CB30684338E0701C37D034
:1013E000FFF71EF9C01BA84203D215B1009860B3E5
:1013F0002CE02068416821F0E00141606068B0F5B0
:10140000827F0BD1A068B0F5004F02D0B0F5806F9D
:1014100004D12068016821F040010160A06AB0F5A4
:10142000005F09D12068016821F400510160206843
:10143000016841F400510160012084F8510000204E
:1014400084F850000320BDE8F8830025401E00907A
:101450002068816838EA010004D000214945BDD1E7
:101460000020F0E70121F9E7100000207047FFF7A6
:10147000DDB8000030B593B030216846FEF76BFF51
:1014800014210CA8FEF767FF1E480025016841F0F3
:1014900080510160006800F0805011901A48016886
:1014A00041F4804101600068022400F48040119002
:1014B00001200090000401908001CDE90640082041
:1014C00008904FF4A870CDE9090407200B906846F6
:1014D000FFF704FA08B172B6FEE70CA90F2081E805
:1014E00031004FF4A0500F904FF480501090052120
:1014F0000CA8FFF729F9002801D072B6FEE713B057
:1015000030BD0000403802400070004002480168D1
:1015100041F470010160704788ED00E0FEE70907C3
:10152000090E002804DB00F1E02080F80014704769
:1015300000F00F0000F1E02080F8141D704700005B
:10154000FFF77CF8FFF796FFFFF776FEFFF7B2FE96
:101550000D4D002280212846FFF75CF80B4C00203F
:1015600064232070012221460948FFF7ACFC642364
:101570000122611C0648FFF7F9FB01228021284661
:10158000FFF748F8FEE70000000C024000000020D2
:10159000140000204FF04070E1EE100A7047000088
:1015A0000000000000000102030406070809000013
:1015B000D01500080000002014000000C40100083D
:1015C000E415000814000020BC060000E00100083B
:1015D00000000000010000001000000000000000FA
:0415E0000024F400EF
:040000050800018965
:00000001FF
